:040000000200AF3219
:03000B0002018669
:0100130032BA
:01001B0032B2
:0100230032AA
:01002B0032A2
:01003300329A
:01003B003292
:01004300328A
:01004B003282
:01005300327A
:01005B003272
:01006300326A
:03006B0002017C13
:01007300325A
:03007B000201344B
:0301110002007E6B
:03007E000201FF7D
:2001140043870122AF82C28C8F21758A18758CFCD28CE521600512011480F7228582E72202
:20013400C020C0E0C0F0C082C083C007C006C005C004C003C002C001C000C0D075D0188568
:2001540022E175D000120DCF75D018D0D0D000D001D002D003D004D005D006D007D083D099
:2001740082D0F0D0E0D020328522E175D60075D70032C0E08522E1C28CE52160021521757D
:200194008A18758CFCD28CD0E03275A80075ADA075AE2075D00075B812758921C28CD2A9DE
:2001B40085E12243223775C758D2AF43BF0875820112011890FFCCE04401F0E030E0F575FB
:2001D400820412011890FFCCE04402F0E030E1F543BF207591FF7592FF7595FF7596FF754E
:1C01F400B11875B2187582FA02011812019E120EB81207B312029412076080FBEA
:09010800755700755800753B00A5
:20021000AD82AE83AFF0E5742DFAE43EFB8F04C002C003C0048D828E838FF012008115818E
:200230001581158150118D828E838FF0E4120E9DA3AD82AE8380D822E582FFC4540FFE5386
:20025000070F75740890004475F040C007C006120210D006D007EE9010A293FE8E46EF909C
:2002700010A293FF8F4790004475F0401203C475740890004475F04012021090004475F03B
:20029000400203C475D5FF75D60075D700752000C222C221C220755E00753B007D237E0086
:2002B0007F40743BC0E07400C0E07440C0E08D828E838FF0120081158115811581501C74E4
:2002D000022DFAE43EFB8F048A828B838CF0E4120E9D74042DFDE43EFE80C77D3C7E007F3F
:2002F000407574088D828E838FF0120210D2B522D2B5D2B6D2B722C2B5D2B5D2B6D2B72266
:20031000AF82EF6004001F80F922E58275F003A424B2FE741035F0FF8E828F83E493F59082
:200330008E828F83A3E493F5A08E828F83A3A3E49352B075820A120310E580F4F582759000
:20035000FF75A0FF43B01822AF8275740890004C75F040C007120210D007BF6100400EEF8B
:20037000248540098F0674A32EF54E802FBF41004011EF24A5400C8F0674C32EF54E754C5C
:20039000028019BF3100400EEF24C640098F0674ED2EF54E8006BF2003754E2C90004C7543
:2003B000F0401203C4754C00754E0090004C75F0400203C485825485835585F056E562701C
:2003D0000122C2AF90FFF17401F07C00BC0800501BEC2554FAE43555FBAF568A828B838F73
:2003F000F0121082FA90FFF3F00C80E0755E0190FFF6ECF090FFF1E4F0D2AFE55E70FC7553
:2004100074088554828555838556F0020210755A80755B11E558601BE53B701785583EF51A
:200430005890003C75F0401203C490003C75F0400203C47B237C007D408C5C743BC0E0744E
:2004500000C0E07440C0E08B828C838DF0120081158115811581400302054C74022BFAE495
:200470003CFE8D078A828E838FF0121082FABA010280030205428B828C838DF0121082C4DA
:200490000354F8F55D74012BFAE43CFE8D078A828E838FF0121082255D9010EB93FF70010F
:2004B000221FEF2FFF255AF582E4355BF583E493FE7A000FBF00010AEF255AF582EA355BC5
:2004D000F583E493F55930E753EE24F050168E02EA2420F5F005F07401800225E0D5F0FBA9
:2004F000F53C8014BE0108755A30755B128009BE0206755AE0755B127401B53B1AE5577074
:2005100016AA5953020F7F00EA247BF582EF3411F583E493F558227558008016E559540F39
:200530006006740F5559F53CAF5C055CEF243EF8A60674042BFBE43CFC02044B853B57223E
:200550007576007C237D007E40743BC0E07400C0E07440C0E08C828D838EF012008115814A
:200570001581158140030206A374022CF577E43DF5788E798577828578838579F01210821E
:2005900070030206998C828D838EF0121082247DF9877574012CFAE43DFB8E078A828B83FB
:2005B0008FF0121082FA8AF005F07401800225E0D5F0FBF574E5755574606274032CF57A83
:2005D000E43DF57B8E7C857A82857B83857CF0121082FB0B857A82857B83857CF0EB120ED1
:2005F0009DBB14005003020685857A82857B83857CF07414120E9D8577828578838579F079
:20061000121082FBBB0102806C8577828578838579F07401120E9DF576053B805874032C3D
:20063000FAE43DFB8E07C004C005C0068A828B838FF0121082FE1E8A828B838FF0EE120EB0
:200650009DC374019ED006D005D00440288577828578838579F0121082FFBF0105153B7517
:20067000760174022CFAE43DFB8E078A828B838FF0E4120E9D8C828D838EF0121082247D8B
:20069000F98707E574F4FB5FF774042CFCE43DFD02055985768222AF82E5747001227E01CC
:2006B0007D00E5745E700B8E04EC2CFE0DBD080040F08D06757523757600757740A875A954
:2006D00076AA77743BC0E07400C0E07440C0E0888289838AF0120081158115811581506F18
:2006F000740228F578E439F5798A7A857882857983857AF012108270468575828576838588
:2007100077F0EF120E9D74012575FBE43576FCAD778B828C838DF0EE120E9D74032575FBAD
:20073000E43576FCAD778B828C838DF0740A120E9D857882857983857AF07402020E9D74A0
:200750000428F8E439F9887589768A770206D3228522E1E5627001227F00EF247DF98F82DA
:20077000C007C00112031AE582D001D007F70FBF120040E6120550E582600C12041E9000A8
:200790003C75F0401203C47F00EF247DF9E7FE600B8E748F82C0071206A7D0070FBF1200E7
:0307B00040E722FD
:2010A200271E1F20212223242526040506070809FEFFFFFDFFFFFBFFFFF7FFFFEFFFFFDFFD
:2010C200FFFFBFFFFF7FFFFFFFFEFFFFFDFFFFFBFFFFF7FFFFEFFFFFDFFFFFBFFFFF7FFFED
:2010E200FFFFF7FFFFEF0000E7000028000012130000000000000000003115361914233ECE
:201102000058000F52003D490000560050540000004B000011000000570000000000303C75
:201122000000000000104A0000000000000000000024024E034D013F3200040E0500000006
:20114200003316251C2B3946403517271826344241381A2A1B2937454421065107202F4320
:1E116200532E081F091D2C473A480A550B1E3B2D22000C4F0D4C000000002C282B2A3D
:2011800029003A003B003C003D003E003F004000410042004300440045004C003900018026
:2011A00002802B0035001E001F002000210022002B04230024002500260027002E002A006D
:2011C0002F00300014001A000800150017004C001C0018000C001200130034023100E183D2
:2011E00004001600070009000A0001800B000D000E000F003300E182E0801D001B000600D1
:2012000019000500028011001000360037003800E584E080E2804A004B004E004D0002808B
:20122000028001815000520051004F00E6806500000000000000000000000000000000009D
:2012400000000000000000000000000049000000460000000000000000000000480048006F
:20126000470048000000000000000000000000000000000000004A0252024D0200000000F0
:2012800000004A0052004D000000000000002B000000500251024F024E0000002B0050007B
:2012A00051004F002A00280000001D011B01060119010000000000000000000000000000E1
:2012C0002A00000000000000000000000000000000000000000000000000000000000000E4
:2012E000C000C100C200C300C400C500C600C700C800C900CA00CB00CC00CD000000000013
:201300000000000000000000000000000000000000000000000000000000000000002A00A3
:20132000000000003802340234002E002D00000022022400250026002D002E0200002B0093
:20134000000000002F0226022F0000002B00210022002300250228000000240220022102BA
:201360002D002D02000037001E001F00200038002B0000000000000000000000000000001A
:10138000000027002B00000000000000000000000B
:2007B30090FFD9E4F090FFF1F090FFE17405F0E0FF4307C090FFE1EFF090FFF47480F09072
:2007D300FFE4F090FFDA7407F090FFD914F075700875620075610090FFC9E04480F022AD9E
:2007F30082AE83AFF07C00C3EC95745019EC2DF9E43EFA8F0390FFE3E0F889828A838BF05A
:20081300120E9D0C80E122AD82AE83AFF07C00C3EC95745019EC2DF9E43EFA8F0389828A88
:20083300838BF0121082F990FFF3F00C80E12290FFF47480F090FFE2E0FF54306053756343
:20085300F090FFE2E0FF20E5F890FFE2E030E4F990FFE2E054EFF090FFDB7402F090FFE621
:20087300E0FF8F7490006475F040C0071207F2D00790FFE2E05430600280C690FFE1E05420
:200893003FF090FFE2E054BFF07E008F718E7280527433B5634290FFE6E0FFFD7E00E5714C
:2008B300C39DFDE5729EFE8D718E728F7490006475F040C0071207F2D007BF080B90FFF63B
:2008D300E4F0AF648F63801B85642012030790FFF6E4F07563A5800B7563A590FFE1E044FA
:2008F300C0FFF090FFE4E04410F022757102757200756500AE645306037F00BE0005BF0065
:2009130002800FBE0104BF000122BE0233BF0030800CE56160047564022275640022740FFB
:20093300556890FFF1F090FFE1E0FF20E704EF30E605756401800375640090FFF1E4F02267
:2009530090FFE1E044C0F022AE645306037F00BE0005BF0002800FBE0104BF000122BE02B9
:2009730041BF003E80117401B566047561002290FFE1E044C0F022E566701F740F556890F9
:20099300FFF1F090FFE1E0543FF090FFE27408F090FFF2F090FFF1E4F02290FFE1E044C079
:2009B300F02290FFE1E044C0F022AE645306037F00BE0005BF0002800FBE0104BF00012207
:2009D300BE0237BF003480117401B566047561012290FFE1E044C0F022E5667015740F55EE
:2009F3006890FFF1F090FFE1E044C0F090FFF1E4F02290FFE1E044C0F02290FFE1E044C098
:200A1300F022757400AE6B7F008E718F728E077E008E718F72AC6A7D00EC2EFEED3FFF8EB9
:200A3300718F72AF67BF01028019BF02028028BF0302803BBF2103020B12BF2203020B25BE
:200A5300020B40756CD9756D13756E809013D9E493FF8F75020B48756CEB756D13756E80B5
:200A73009013ED75F080121082FF8F75020B48E566FF24FC5003020AF9EF2F900A927380F3
:200A930006800F80298043756C0D756D14756E80805C9013E7E493600B756C11756D147556
:200AB3006E80804A90FFE1E044C0FFF080409013E8E493600B756C37756D14756E80802EDC
:200AD30090FFE1E044C0FFF080249013E9E493600B756C7B756D14756E80801290FFE1E017
:200AF30044C0FFF0800890FFE1E044C0FFF0856C82856D83856EF0121082FF8F7580367588
:200B13006CFD756D13756E809013FDE493FF8F758023756C90756D13756E80901404E4935C
:200B3300FF8F75901405E493FF8F74800890FFE1E044C0FFF0C3E5749571E57595725006D9
:200B530085747185757222AF66EFF573602B7F0190FFF1EFF090FFE17405F090FFE4748074
:200B7300F090FFF4F090FFE2C4F090FFF2F00FBF060040DC75620180127F0190FFF1EFF030
:200B930090FFE1E4F00FBF060040F090FFF1E4F022E4B56812E566600890FFE1E044C0F07A
:200BB3002290FFF6E4F02290FFE1E044C0F022757101E4F572B568047564002290FFE1E081
:200BD30044C0F022745AB5634EAE71AF72AD708D037C00C3EB9EEC9F500280028E058D7410
:200BF300856C82856D83856EF0C00512081AD00590FFF6EDF08D067F00E571C39EFEE572C9
:200C13009FFF8E718F72ED256CFDE4356DFFAE6E8D6C8F6D8E6E2290FFE1E044C0F07455E7
:200C3300B56307AF7390FFD8EFF07444B5630675826802013022E565FF24F35003020CEAE5
:200C5300EF240A83F582EF241183F583E4737B84EA90EA9CA9EAB2C2D4CEDD0C0C0C0C0C33
:200C73000C0C0C0C0C0C0C0C75635A1208FE020BD77563A512095B90FFF6E4F0227563A5E8
:200C93001209BD90FFF6E4F022756355AF668F7390FFF6E4F02275635A120A15020BD77573
:200CB300635AAF738F64757101757200020BD77563A5120B5A90FFF6E4F0227563A5020BA4
:200CD300A475635A120BC2020BD77563A590FFF6E4F0F571F5722290FFE1E044C0F022AF8E
:200CF30065BF01028037BF02028014BF0302801EBF0902804FBF0A028032BF0B69803975D3
:200D1300635A855F64757101757200020BD775635A856064757101757200020BD775635AAA
:200D3300852064757101757200020BD77563A585675F90FFF6E4F0227563A585666090FF4B
:200D5300F6E4F022756333AE6B7F008E718F728E077E008E718F72AC6A7D00EC2EFEED3F07
:200D7300FF8E718F722290FFE1E044C0F022756C64756D00756E4012084274F0B5632AE4A9
:200D9300F571F572AE645306607F00BE0005BF00028008BE200BBF00088003020C49020C85
:200DB300F290FFE1E044C0FFF022AF8290FFF4E0FE740F5E420790FFF4EFF02290FFC9E051
:200DD300FF540F7003020E55EF30E05574F05F440190FFC9F0540F6001221203007401B5FD
:200DF300610C75900075A00053B0E775D7FF4387027582011201187401B5611AE5D7700A5A
:200E130090FFC9E04420FEF0800375D7007590FF75A0FF43B0187401B5620280012202030D
:200E330007EF30E20F74F05F440490FFC9F01202940207B3EF30E15174F05F440290FFC91F
:200E5300F02290FFDBE0FF30E21B90FFDB7404F090FFF17401F0758210120DBD7401B55ED5
:200E730028755E0022EF30E10E90FFDB7402F090FFF1E4F0020D81EF30E00E90FFDB740194
:0A0E9300F090FFF1E4F0020BD7220B
:2013900005010906A101050719E029E71500250175019508810295017508810195037501FD
:2013B000050819012903910295057501910195067508150026FF00050719002AFF00810074
:2013D000090095087508B100C012011001000000086A0E0C03300101020001090222000153
:2013F0000100A0320904000001030101000921100100012249000705810308000A0403099E
:201410000426035400720075006C0079004500720067006F006E006F006D00690063002E9E
:201430000063006F006D0044035400720075006C00790020004500720067006F006E006F6C
:20145000006D0069006300200043006F006D007000750074006500720020004B006500798B
:191470000062006F006100720064000E033600320031003000330031001D
:0600DE00E478FFF6D8FDF6
:2000BC007900E94400601B7A00901489780175A000E493F2A308B8000205A0D9F4DAF2754D
:0200DC00A0FF83
:1B0E9D0020F71130F6138883A88220F509F6A8837583002280FEF280F5F02254
:2000E4007800E84400600A790175A000E4F309D8FC7800E84400600C7900900001E4F0A31A
:04010400D8FCD9FA50
:200EB800788F760022788F8607BF222C78908605088606789286047B00EC2DFDEB3EFE78EF
:200ED80090A60508A606789086067864A606789186067865A6068038BF110A786476017874
:200EF800657604802BBF552878647640789086077865A607789186077866A60778677600ED
:200F18007868760078697600786A7600786B7600788F760022AF82788FE6600302107DEFBD
:200F3800700302107D78648607788FA607788F8606BF330C7890760008760078927600224B
:200F5800BE400280012278658607788FA607BF55028001227867E6A2E3E433FF7892A607E8
:200F7800EF2FFF7892A607789286077866E623540142077892A607EF2FFF7892A6077892D4
:200F980086077866860674015E42077892A60778928606EF24F8500122EE240A83F582EE57
:200FB800240C83F583E473CFE4F90F253B51670F0F0F101010101078668607745A4F7890B7
:200FD800F67867860774695F7891F6227866860774A55F7890F67867860774964F7891F695
:200FF80022786686076307417890A60778678607742B5F7891F62278668607630714789070
:20101800A6077867860774B24F7891F62278668607743C4F7890F67867860763077E789144
:20103800A607227866860774C35F7890F6786786076307E77891A607227866860774FFC394
:201058009F7890F678678607748D2F7891F6227866860774D82F7890F67867860774FFC398
:0A1078009F7891F622788F7600220F
:20008100E58124FCC3C8C0E0C082E608467006E5824583601218E58296F58208E58396424D
:1B00A1008208E5F0964582D082C8D0E0C82275819212109EE582600302007E42
:1C10820020F71430F6148883A88220F507E6A88375830022E280F7E49322E0227D
:04109E007582002235
:00000001FF
